{
  "contractName": "NoteContract",
  "abi": [
    {
      "anonymous": false,
      "inputs": [
        {
          "indexed": false,
          "internalType": "address",
          "name": "recipient",
          "type": "address"
        },
        {
          "indexed": false,
          "internalType": "uint256",
          "name": "taskId",
          "type": "uint256"
        }
      ],
      "name": "AddNote",
      "type": "event"
    },
    {
      "anonymous": false,
      "inputs": [
        {
          "indexed": false,
          "internalType": "uint256",
          "name": "taskId",
          "type": "uint256"
        },
        {
          "indexed": false,
          "internalType": "bool",
          "name": "isDeleted",
          "type": "bool"
        }
      ],
      "name": "DeleteNote",
      "type": "event"
    },
    {
      "inputs": [
        {
          "internalType": "string",
          "name": "noteContent",
          "type": "string"
        },
        {
          "internalType": "bool",
          "name": "isDeleted",
          "type": "bool"
        }
      ],
      "name": "addNote",
      "outputs": [],
      "stateMutability": "nonpayable",
      "type": "function"
    },
    {
      "inputs": [],
      "name": "getMyNotes",
      "outputs": [
        {
          "components": [
            {
              "internalType": "uint256",
              "name": "id",
              "type": "uint256"
            },
            {
              "internalType": "string",
              "name": "noteContent",
              "type": "string"
            },
            {
              "internalType": "bool",
              "name": "isDeleted",
              "type": "bool"
            }
          ],
          "internalType": "struct NoteContract.Note[]",
          "name": "",
          "type": "tuple[]"
        }
      ],
      "stateMutability": "view",
      "type": "function",
      "constant": true
    },
    {
      "inputs": [
        {
          "internalType": "uint256",
          "name": "noteId",
          "type": "uint256"
        },
        {
          "internalType": "bool",
          "name": "isDeleted",
          "type": "bool"
        }
      ],
      "name": "deleteNote",
      "outputs": [],
      "stateMutability": "nonpayable",
      "type": "function"
    }
  ],
  "bytecode": "0x608060405234801561001057600080fd5b50610e59806100206000396000f3fe608060405234801561001057600080fd5b50600436106100415760003560e01c8063163c8fa6146100465780632905f16d1461006257806386f17bb71461007e575b600080fd5b610060600480360381019061005b919061063b565b61009c565b005b61007c600480360381019061007791906107c1565b61017d565b005b6100866102a0565b60405161009391906109cc565b60405180910390f35b3373ffffffffffffffffffffffffffffffffffffffff166001600084815260200190815260200160002060009054906101000a900473ffffffffffffffffffffffffffffffffffffffff1673ffffffffffffffffffffffffffffffffffffffff1603610179578060008381548110610117576101166109ee565b5b906000526020600020906003020160020160006101000a81548160ff0219169083151502179055507f6841b3dd8a322b907968fe48c87c29e58b063456dde37daf0a185fbc0fac5d348282604051610170929190610a3b565b60405180910390a15b5050565b6000808054905090506000604051806060016040528083815260200185815260200184151581525090806001815401808255809150506001900390600052602060002090600302016000909190919091506000820151816000015560208201518160010190816101ed9190610c70565b5060408201518160020160006101000a81548160ff0219169083151502179055505050336001600083815260200190815260200160002060006101000a81548173ffffffffffffffffffffffffffffffffffffffff021916908373ffffffffffffffffffffffffffffffffffffffff1602179055507f912754c76edafaf68c916e1f83ee7b1e5330e7f965b691aac1d9773f928424b23382604051610293929190610d83565b60405180910390a1505050565b60606000808054905067ffffffffffffffff8111156102c2576102c1610696565b5b6040519080825280602002602001820160405280156102fb57816020015b6102e8610596565b8152602001906001900390816102e05790505b5090506000805b6000805490508110156104dc573373ffffffffffffffffffffffffffffffffffffffff166001600083815260200190815260200160002060009054906101000a900473ffffffffffffffffffffffffffffffffffffffff1673ffffffffffffffffffffffffffffffffffffffff161480156103b3575060001515600082815481106103905761038f6109ee565b5b906000526020600020906003020160020160009054906101000a900460ff161515145b156104c957600081815481106103cc576103cb6109ee565b5b9060005260206000209060030201604051806060016040529081600082015481526020016001820180546103ff90610a93565b80601f016020809104026020016040519081016040528092919081815260200182805461042b90610a93565b80156104785780601f1061044d57610100808354040283529160200191610478565b820191906000526020600020905b81548152906001019060200180831161045b57829003601f168201915b505050505081526020016002820160009054906101000a900460ff1615151515815250508383815181106104af576104ae6109ee565b5b602002602001018190525081806104c590610ddb565b9250505b80806104d490610ddb565b915050610302565b5060008167ffffffffffffffff8111156104f9576104f8610696565b5b60405190808252806020026020018201604052801561053257816020015b61051f610596565b8152602001906001900390816105175790505b50905060005b8281101561058c57838181518110610553576105526109ee565b5b602002602001015182828151811061056e5761056d6109ee565b5b6020026020010181905250808061058490610ddb565b915050610538565b5080935050505090565b604051806060016040528060008152602001606081526020016000151581525090565b6000604051905090565b600080fd5b600080fd5b6000819050919050565b6105e0816105cd565b81146105eb57600080fd5b50565b6000813590506105fd816105d7565b92915050565b60008115159050919050565b61061881610603565b811461062357600080fd5b50565b6000813590506106358161060f565b92915050565b60008060408385031215610652576106516105c3565b5b6000610660858286016105ee565b925050602061067185828601610626565b9150509250929050565b600080fd5b600080fd5b6000601f19601f8301169050919050565b7f4e487b7100000000000000000000000000000000000000000000000000000000600052604160045260246000fd5b6106ce82610685565b810181811067ffffffffffffffff821117156106ed576106ec610696565b5b80604052505050565b60006107006105b9565b905061070c82826106c5565b919050565b600067ffffffffffffffff82111561072c5761072b610696565b5b61073582610685565b9050602081019050919050565b82818337600083830152505050565b600061076461075f84610711565b6106f6565b9050828152602081018484840111156107805761077f610680565b5b61078b848285610742565b509392505050565b600082601f8301126107a8576107a761067b565b5b81356107b8848260208601610751565b91505092915050565b600080604083850312156107d8576107d76105c3565b5b600083013567ffffffffffffffff8111156107f6576107f56105c8565b5b61080285828601610793565b925050602061081385828601610626565b9150509250929050565b600081519050919050565b600082825260208201905092915050565b6000819050602082019050919050565b610852816105cd565b82525050565b600081519050919050565b600082825260208201905092915050565b60005b83811015610892578082015181840152602081019050610877565b60008484015250505050565b60006108a982610858565b6108b38185610863565b93506108c3818560208601610874565b6108cc81610685565b840191505092915050565b6108e081610603565b82525050565b60006060830160008301516108fe6000860182610849565b5060208301518482036020860152610916828261089e565b915050604083015161092b60408601826108d7565b508091505092915050565b600061094283836108e6565b905092915050565b6000602082019050919050565b60006109628261081d565b61096c8185610828565b93508360208202850161097e85610839565b8060005b858110156109ba578484038952815161099b8582610936565b94506109a68361094a565b925060208a01995050600181019050610982565b50829750879550505050505092915050565b600060208201905081810360008301526109e68184610957565b905092915050565b7f4e487b7100000000000000000000000000000000000000000000000000000000600052603260045260246000fd5b610a26816105cd565b82525050565b610a3581610603565b82525050565b6000604082019050610a506000830185610a1d565b610a5d6020830184610a2c565b9392505050565b7f4e487b7100000000000000000000000000000000000000000000000000000000600052602260045260246000fd5b60006002820490506001821680610aab57607f821691505b602082108103610abe57610abd610a64565b5b50919050565b60008190508160005260206000209050919050565b60006020601f8301049050919050565b600082821b905092915050565b600060088302610b267fffffffffffffffffffffffffffffffffffffffffffffffffffffffffffffffff82610ae9565b610b308683610ae9565b95508019841693508086168417925050509392505050565b6000819050919050565b6000610b6d610b68610b63846105cd565b610b48565b6105cd565b9050919050565b6000819050919050565b610b8783610b52565b610b9b610b9382610b74565b848454610af6565b825550505050565b600090565b610bb0610ba3565b610bbb818484610b7e565b505050565b5b81811015610bdf57610bd4600082610ba8565b600181019050610bc1565b5050565b601f821115610c2457610bf581610ac4565b610bfe84610ad9565b81016020851015610c0d578190505b610c21610c1985610ad9565b830182610bc0565b50505b505050565b600082821c905092915050565b6000610c4760001984600802610c29565b1980831691505092915050565b6000610c608383610c36565b9150826002028217905092915050565b610c7982610858565b67ffffffffffffffff811115610c9257610c91610696565b5b610c9c8254610a93565b610ca7828285610be3565b600060209050601f831160018114610cda5760008415610cc8578287015190505b610cd28582610c54565b865550610d3a565b601f198416610ce886610ac4565b60005b82811015610d1057848901518255600182019150602085019450602081019050610ceb565b86831015610d2d5784890151610d29601f891682610c36565b8355505b6001600288020188555050505b505050505050565b600073ffffffffffffffffffffffffffffffffffffffff82169050919050565b6000610d6d82610d42565b9050919050565b610d7d81610d62565b82525050565b6000604082019050610d986000830185610d74565b610da56020830184610a1d565b9392505050565b7f4e487b7100000000000000000000000000000000000000000000000000000000600052601160045260246000fd5b6000610de6826105cd565b91507fffffffffffffffffffffffffffffffffffffffffffffffffffffffffffffffff8203610e1857610e17610dac565b5b60018201905091905056fea264697066735822122022cd3db29cde2a31420435a9a59a349204f5c1b6d66f219fd492efff5536600464736f6c63430008100033",
  "immutableReferences": {},
  "source": "// SPDX-License-Identifier: MIT\npragma solidity >=0.4.22 <0.9.0;\n\ncontract NoteContract {\n  event AddNote(address recipient, uint taskId);\n  event DeleteNote(uint taskId, bool isDeleted);\n\n  struct Note{\n    uint id;\n    string noteContent;\n    bool isDeleted;\n  }\n\n  Note[] private notes;\n\n  // maps each note to a specific user\n  mapping(uint256 => address) noteToOwner;\n\n  function addNote(string memory noteContent, bool isDeleted) external {\n    uint noteId = notes.length;\n    notes.push(Note(noteId, noteContent, isDeleted));\n    noteToOwner[noteId] = msg.sender;\n    emit AddNote(msg.sender, noteId);\n  }\n\n  function getMyNotes() external view returns (Note[] memory) {\n    Note[] memory temp  = new Note[](notes.length);\n    uint count = 0;\n    \n    for (uint i=0; i<notes.length; i++){\n      if(noteToOwner[i] == msg.sender && notes[i].isDeleted == false){\n        temp[count] = notes[i];\n        count ++;\n      }\n    }\n    Note[] memory res = new Note[](count);\n    \n    for (uint i=0; i<count; i++){\n      res[i] = temp[i];\n    }\n\n    return res;\n  }\n\n  function deleteNote(uint noteId, bool isDeleted) external{\n    if(noteToOwner[noteId] == msg.sender){\n      notes[noteId].isDeleted = isDeleted;\n      emit DeleteNote(noteId, isDeleted);\n    }\n  }\n}\n",
  "sourcePath": "/Users/nestordsouza/Desktop/DNote/backend/contracts/NoteContract.sol",
  "compiler": {
    "name": "solc",
    "version": "0.8.16+commit.07a7930e.Emscripten.clang"
  },
  "schemaVersion": "3.4.9",
  "updatedAt": "2022-08-20T15:02:39.255Z",
  "networkType": "ethereum",
  "devdoc": {
    "kind": "dev",
    "methods": {},
    "version": 1
  },
  "userdoc": {
    "kind": "user",
    "methods": {},
    "version": 1
  }
}